:040000006F00007C11
:1000040000000000000000009000002026030020F3
:10001400A9BDF9F5940000200000000000000000D4
:10002400960000209800002000000000000000005E
:100034009A000020000000009C0000200000000046
:1000440068010020A0000020A2000020A4000020DD
:10005400A6000020A8000020AA000020AC00002078
:10006400AE000020B0000020B2000020C600002036
:10007400B6000020B8000020BA000020BC00002018
:10008400BE000020C0000020C2000020C4000020E8
:1000940001A001A001A001A001A001A001A001A054
:1000A40001A001A001A001A001A001A001A001A044
:1000B40001A001A001A001A001A001A001A001A034
:1000C40001A001A001A0373700408347474099466B
:1000D400BD8B638AD702314741116380E70611471C
:1000E4006390E702A307010037370040971600002A
:1000F400938606908347F10003C681816319F60055
:1001040041017300203083475740730020308347F8
:10011400F10003468740B6972380C7008347F10068
:10012400B69783C707002304F7408347F100850788
:1001340093F7F70FA307F10075BF17150000130518
:10014400258B971000E0E78060491375F50FA3072E
:10015400A1008345F1001715000013056589971068
:1001640000E0E780204569BFB727004003C7670068
:10017400058B09CF03C707001377B70F2380E70068
:1001840005472383E700854723A4F18073002030CB
:10019400B7170040930670052380D704130780FA2D
:1001A4002380E7040100010003C6B7041376F60DAB
:1001B400A385C704238007041376050259CE03C61A
:1001C400A700118A1DE22380D7042380E7040100DD
:1001D400010003C7A700136747002385E7009307BF
:1001E400004B01000100FD17EDFFB7170040930617
:1001F40070052380D704130780FA2380E7040100E5
:1002040001007D892394A700010001000100010081
:10021400238007042380D7042380E704010001001E
:100224003727004093061005A303D78023800704D3
:10023400B7170040130770052380E704130780FAFB
:100244002380E7040100010003C7B704136707080C
:10025400A385E704238007048280137605042DCA4E
:1002640003C6A700418A1DE22380D7042380E70444
:100274000100010003C7A700136707012385E700F6
:100284009307007D01000100FD17EDFFB717004043
:10029400930670052380D704130780FA2380E704AC
:1002A400010001007D89136505042394A700010062
:1002B400010001000100238007042380D704238068
:1002C400E704010001003727004093062005A9BF79
:1002D4002380D7042380E7040100010003D78700AB
:1002E4001367070C2394E700A1B741118146014627
:1002F4008145114506C6B12AB7170040130770059A
:100304002380E704130780FA2380E7040100010037
:1003140003C76704136717002383E70423800704D4
:10032400B240410182808146014681451145152232
:10033400B7170040130770052380E704130780FAFA
:100344002380E704010001007D572396E70203C7D9
:100354006704136717002383E7042380070401A0BD
:10036400BD473305F50201007D1575FD82804111FD
:1003740022C426C206C6AA84014463179400B2406C
:10038400224492444101828005041305803E4204C4
:10039400C13F4180DDB72303048015472303E48074
:1003A40001002302A480828083076480E3CE07FED9
:1003B40023030480828083076480E3CE07FE034521
:1003C4004480828083076480E3CE07FE2302A480F6
:1003D4008280411126C44AC24EC006C61377F50B6B
:1003E400AD47AA892E8995446306F70019456537F8
:1003F400653F8D444E854537FD59FD14639834019E
:10040400B240A24412498249410182801355090134
:100414001375F50F453F2209CDB7011126CC06CE41
:10042400B704080051371545BD37713769372AC6F7
:10043400A53F32459377150089EB136515001375B5
:10044400F50FF240E24405618280FD14E9FC0145A8
:10045400CDBF397126DC4ADA4ED852D656D45AD298
:100464005ED006DE62CE66CCB7E700E07D5783AA95
:10047400070022C603AA470023A0E71823A2E7180F
:10048400B7170040130770052380E704130780FAA9
:100494002380E70483C74704930B75FFB684E20700
:1004A40093FBFB0F8546AA892E8B328937240040A3
:1004B400E187015763FA76016308D500894613077B
:1004C40000026313D5000157D98F93F7F70FB71CB8
:1004D40000402382FC0411472303E4801305F00F3A
:1004E4005D3D094CD135636D7C11B7050700DA9584
:1004F40037870700795563F2E504B3879500636E87
:10050400F702370B0800A94733EB65016399F90635
:1005140089E48144513D26850DA0DA850945553D80
:1005240005090345F9FFFD14050B693D81C4937763
:10053400FB0FFDF7DD3569FD7D55B7170040130747
:1005440070052380E704130780FA2380E70403C7B8
:100554004704418B2382E704F250B7E700E023A06D
:10056400571123A24711E25432445259C259325A04
:10057400A25A125B825B724CE24C21618280A547D5
:100584006395F90685691309F00FB3069900B374EE
:100594002B01B6941349F9FFB3749900856B337931
:1005A4006901416B9387F9FFB3F7270199E363FC72
:1005B400340193D94900C147E3E637FF99BF056980
:1005C400C1697D19D9B71305800D638869011305C5
:1005D40000026384790113051008CA85DD3B353DAB
:1005E40021DD4E99B3843441D9B7DA852D45D5330D
:1005F400CA94E30099F205097D3BA30FA9FED5BF78
:100604009387F9FF93F7F70F6361FC0C83C71C040E
:1006140013073008631FF70437070800636BEB0404
:10062400B3079B00B706100063F5D704334BEB0008
:1006340089476393F9068980D549E38C04ECDA850C
:100644000945413B11090327C9FF91472320E48051
:1006540003076480E34E07FE23033481FD17EDFB9B
:10066400FD14110B81C49377FB0FE9FF7D3371F502
:10067400E1B5B717004003C75704B707080013775D
:10068400070219E3B78707007955E378FBEA3307D4
:100694009B00E3FFE7F855B58547E382F9F2DA8575
:1006A4002D45053B9389F4FFE38504E6293393F74D
:1006B400390091EB8326048003270900930749003E
:1006C400E39AE6E43E89CE84F1BFB5476396F90028
:1006D4001305900BC93135BDB1471305B00AE38B3F
:1006E400F9FE99476391F904B7050800B365BB00A7
:1006F4002D45C53181448D4BA149753963967401EB
:10070400832704802320F9008504E39834FF83279A
:10071400048013172B01635507002312F900D5BB7E
:100724002322F900FDB39D476399F902814513051E
:10073400B0044531BD442320090023220900FD599A
:100744009D3993F77400CA9703C70700FD14398DC8
:100754002380A700E39634FF6DBBA1476392F9049D
:100764006D398144630D0B008D479304C003630806
:10077400FB009304000563048B0193044004137588
:10078400C507E30895D8194539313939054521316B
:1007940026850D3909453D314931E31C05D669BB30
:1007A40091476399F90013056006F536F53E130584
:0C07B40090090DB7E38F09D4F154A9BBE4
:1007C00097110020938101A11781002013018183DB
:1007D00013054000970500209385C5821706002069
:1007E000130606FE63FAC5008322050023A0550008
:1007F00011059105E3EAC5FE179500001305C560D4
:1008000097050020938505001386818063FAC50053
:100810008322050023A0550011059105E3EAC5FEDA
:10082000138581809385418A6377B5002320050075
:100830001105E36DB5FEFD42739002BC8D427390CD
:1008400042809302800873A0023097F2FF1F9382C8
:10085000627B93E2320073905230970200009382E1
:10086000820B73901234730020303D432A876373E8
:10087000C3029377F700BDEFADE5937606FF3D8A9F
:10088000BA960CC34CC30CC74CC74107E36BD7FEE9
:1008900011E28280B306C3408A0697020000969652
:1008A0006780A6002307B700A306B7002306B7009A
:1008B000A305B7002305B700A304B7002304B700BE
:1008C000A303B7002303B700A302B7002302B700B6
:1008D000A301B7002301B700A300B7002300B700AE
:1008E000828093F5F50F93968500D58D939605013B
:1008F000D58D61B793962700970200009696868261
:10090000E78086FA9680C1171D8F3E96E374C3F880
:10091000A5B701111305800406CE02C6970000207A
:10092000E7804087371700408327870A85451305EE
:10093000001093E707202324F70AEF00102F8D45BE
:1009400013050020EF00702EEF007043B922C52977
:100950001545EF00B02C979700009387E7E08C4394
:1009600013050000EF001023EF0090140100EDBF0D
:10097000411106C622C423A401802A84EF00503509
:10098000B7470F00938707243355F50233058502D7
:10099000EF00B03A138781801C43FDDF372700400A
:1009A00083470700014593F7B70F2300F700B240D4
:1009B000224441018280411122C426C206C64AC097
:1009C0001304C003B714004083A7440A898B85E74A
:1009D0000144B71400401309000F83A7440A898B10
:1009E00085CF9307B003014563C2870217950000C6
:1009F000130505E109A805457D149D3F71F4179580
:100A00000000130525DCEF10C0340545B240224438
:100A1000924402494101828029452904913FE31E05
:100A200024FB179500001305A5DBF1BF41118D458F
:100A3000094506C622C4EF00501F37140040832723
:100A4000C40A1305401F93E727002326F40A0D3735
:100A50008327840AB240854593E727002324F40ABC
:100A60002244094541016F00501C411106C622C4B1
:100A7000753F91379377F50F2A8499C71795000032
:100A80001305C5DEEF10E02C1305000FD5351375E7
:100A9000F40FB240224441018280411106C637273B
:100AA0000040834727001305400693E71700230102
:100AB000F700B7E700E0416723A0E710553D8D45FB
:100AC0000945EF009016371700408327870AB24088
:100AD00093E727002324F70A410141BF411126C2B1
:100AE0008D45AA84094522C406C637140040EF008C
:100AF000D0138327C40A1305C00393E727002326D6
:100B0000F40A99C83D45AD358327840A13052003AF
:100B100093E727002324F40AA13D371700408327D9
:100B2000870A2244B240924493E727002324F70A1D
:100B30000945410135BD411122C426C206C6AA8419
:100B400021447D1413F514001374F40F413F858480
:100B50006DF8B240224492444101828041118D459A
:100B6000094506C622C426C2EF00300CB714004067
:100B700083A7C40A094593E7270023A6F40ACD3BBF
:100B800083A7840A8545094593E7270023A4F40A2F
:100B9000EF00B0091545E93B03A4440A098809E8B8
:100BA0001145F93383A7440A898B81E77D5429A035
:100BB00005441305C0036D3B2285B2402244924494
:100BC00041018280411122C426C206C6A1440144CB
:100BD0000580693709C5136404F81374F40FFD1414
:100BE00093F4F40FF5F42285B2402244924441017B
:100BF00082800111979700009387C7BB26CAAA84F9
:100C0000884322CC4AC84EC606CE054497990000B8
:100C10009389C9B51D4993F7140099C79317240008
:100C2000CE978C43EF30604605048580E31524FFA2
:100C3000EF30F06E97970000938747B89043D44306
:100C4000EF200057EF307078F2406244D2444249BE
:100C5000B24905618280011122CC26CA4AC84EC61B
:100C6000AA8406CE014413050000979900009389D9
:100C7000A9B1214993F7140099C793172400CE977F
:100C80008C43EF30804005048580E31524FFF2405B
:100C90006244D2444249B24905618280011122CCAA
:100CA00026CA4AC84EC656C25AC006CE52C4AA89DF
:100CB00017990000130949AD01449D44054BFD5AA5
:100CC000032AC901CE855285EF30207B634CA000FA
:100CD000B3179B004E85D2855D8CEF30D02B1374FB
:100CE000F40FAA89FD147119E39C54FD2285F2408A
:100CF0006244D2444249B249224A924A024B0561B7
:100D00008280011106CE22CC26CA4AC84EC656C2DF
:100D10005AC052C4EF30B06097970000938707A97C
:100D20009043D44317990000130949A49544EF2038
:100D30002048EF309069979700009387A7A78C43CE
:100D40000144054BEF303025AA89FD5A032A890159
:100D5000CE855285EF306072634CA0004E85D285FF
:100D6000EF307023B3179B005D8CAA891374F40FC6
:100D7000FD147119E39C54FD2285F2406244D24473
:100D80004249B249224A924A024B056182800111CE
:100D900006CE22CC26CA4AC84EC62E89B289EF306A
:100DA0008000979700009387E7AA9043D443EF1001
:100DB000F06497970000938767AA9043D443EF208D
:100DC000B00A2A86AE86EF1060702A844E85AE8403
:100DD000EF30F0542A86AE862285A685EF20403D6E
:100DE0002A844A85AE84EF3090532A86AE862285C7
:100DF000A685EF10A06DEF30505DF2406244D24402
:100E00004249B249056182808146AA9581476314AF
:100E1000B5003E85828005050347F5FFB98F214760
:100E200033C6D700058A858309C693C7C7F893F7E9
:100E3000F70F7D171377F70F85827DF3C9BF411137
:100E40001305500506C6C53913058002ED3113059B
:100E500050F9D5310545C53113056007E93913054A
:100E60004004D1395555C1390145F131B2400145F0
:100E70004101D1B1411122C406C626C22A84F536E9
:100E800005E5753F1305B0FA7D319304F4006398CE
:100E900084000545B2402244924441018280050409
:100EA0000305F4FF4939E5B70145EDB7411122C407
:100EB00006C626C22A84553E05E551371305B0F80B
:100EC0009D399304F400639884000545B2402244A0
:100ED0009244410182800504F531A30FA4FEE5B7D9
:100EE0000145EDB7011126CAAA840A8522CC06CE97
:100EF0004AC86D3F2A8411CD0349E100B9450A85EE
:100F00002137631FA9008347910093F7F7032380DC
:100F1000F4002285F2406244D24442490561828055
:100F20000144C5BF011122CC2A841305F10006CE6D
:100F3000553F0345F100753908C0F2406244056130
:100F40008280011126CAAA840A8522CC06CE4AC80C
:100F5000B13F2A841DC50349E100B9450A856D35B5
:100F60006318A902034791008D4719833387E7402F
:100F70009307F00FB3D7E74003474100F98F238071
:100F8000F4002285F2406244D244424905618280E5
:100F90000144C5BF011122CC2A841305F10006CEFD
:100FA0004D370345F100453908C0F2406244056100
:100FB0008280011106CE2EC6F13FB2452E859D37A7
:100FC000F240054505618280011126CAAA840A857E
:100FD00022CC06CE4AC8D93D2A840DC10349E1007E
:100FE000B9450A8515356312A902034531009D886C
:100FF0006199458DA301A1000A85AD3D2285F2408E
:101000006244D2444249056182800144C5BF79717E
:101010004AD02A890A8522D426D206D64ECEAE845C
:1010200071352A841DC18349E100B9450A85E93B30
:101030006395A902834591000A852302210193F556
:10104000F503C58DA304B10035352285B250225475
:1010500092540259F249456182800144FDB7978755
:1010600000009387A77B8C43411106C6EF30E00157
:101070003531937705FE814589CF937705FC93053C
:10108000000481CB937705F89305000C99E3930551
:101090000008B53FB240054541018280011126CAD2
:1010A000AA840A8522CC06CE4AC809352A840DC1F5
:1010B0000349E100B9450A85813B6312A9028347D0
:1010C00091000A8593F707FCDD8CA30491005D3342
:1010D0002285F2406244D244424905618280014443
:1010E000C5BF411106C6EF30902397870000938754
:1010F00067729043D443EF10603DEF30102D1131F3
:10110000713FB240054541018280411106C622C4AB
:1011100026C24AC0AE842A89178400001304447092
:10112000EF20B0760C40EF30003E153FCA85268593
:10113000EF3060660C40EF30003D6537B24022442E
:1011400092440249054541018280411106C6EFF0F3
:10115000DF91814719E5E53113056006EFF0BF9D8A
:101160008547B2403E8541018280411122C406C6B6
:1011700026C22A84EFF07F8F15E5D1311305E0FBFD
:10118000EFF07F9B93049400639884000545B24080
:1011900022449244410182800504EFF0BFA2A30FD4
:1011A000A4FEDDB70145E5B779714AD02A89480028
:1011B00022D426D206D64ECEAE84453F2A8405C11F
:1011C0008349C100A145480081316392A902834748
:1011D000B1002300F9008347A1002380F400228599
:1011E000B250225492540259F2494561828001441E
:1011F000FDB779714AD02A89480022D426D206D672
:101200004ECEAE849D372A8405C98349C100A145CD
:101210004800DD3E639AA90283475100034741001D
:10122000A207D98F2310F90083477100034761009B
:10123000A207D98F2390F4002285B25022549254F1
:101240000259F249456182800144FDB7411122C42F
:1012500006C626C22A84EFF05F8115E5CD36130558
:10126000C0FDEFF05F8D9304640063988400054532
:10127000B24022449244410182800504EFF09F94E1
:10128000A30FA4FEDDB70145E5B7011122CC2A84E6
:10129000280006CE653F09C98347910003478100B6
:1012A000A207D98F2310F400F240624405618280C6
:1012B0003971154506DE22DC26DA4AD8313393052A
:1012C000710213056102CD35493515E1178500001E
:1012D0001305455AEF00F0271305E03DEFF04FE905
:1012E000F2506254D25442590545216182803D45F5
:1012F000EFF00FE893850189138501885D39930527
:101300007102130561024D359305E1026810D53570
:101310002810A53F19E51785000013056556EF0055
:101320003021938701888043938701898443035543
:10133000E102A2852686EFF09FA52A890355810246
:101340002686A285EFF0BFA42A8417850000130526
:10135000E552EF0010202285EF30607C03578102B8
:101360002ACC4A853ACA2ECEEF30607B8347710281
:10137000AE8662483EC283476102F24852478355B7
:10138000E1022A863EC01785000013056550EF0074
:10139000301A99B74111978700009387A74C26C24E
:1013A000AE848C4322C42A84268506C6EF30E00C26
:1013B000634CA002A2852685EF30C0036356A002CD
:1013C000930500002285EF30E002634F0500A285FF
:1013D0002685EF30403C978700009387E7488C4391
:1013E000EF30A0096352A002978500009385454421
:1013F0001785000013058545EF0090130145B240A5
:101400002244924441018280A6852285FD3993853C
:10141000018913850188713E0545D5B7411106C67E
:101420006536B240054541018280914763EEB702BF
:1014300017870000130707498A05BA959C41BA9798
:101440008287B717004003A7470B1345F5FF698F45
:1014500023AAE70A03A7070B698F23A8E70A03A7B4
:10146000070A798D23A0A70A8280B717004083A6B8
:10147000470B1347F5FFF98E23AAD70A83A6070B5C
:10148000558D23A8A70A83A6070A758F23A0E70A0C
:101490008280B717004003A7470B498F23AAE70AAA
:1014A00003A7070B1345F5FF45BFB717004083A6F9
:1014B000470B1347F5FF758F23AAE70A03A7070A0F
:1014C000598D4DB7B717004003A7470B498FEDB7AC
:1014D000B717004003D58700420541819377050483
:1014E00091EB9377F5013755E801130505803345F6
:1014F000F50282809377050C130700046397E700D9
:101500009377F50137459C1CCDB72165130505D0B0
:101510008280814737370040A14663C4C7003285C7
:1015200082800345B740E38EA6FE3385F500034570
:10153000050085072304A740CDB7B7270040C8C7DB
:1015400009472380E70011472380E700828041118B
:1015500022C406C62A84AD3F2947B307E502B2403C
:101560008D83B3D7870222449507B3D7E702373775
:101570000040C207C1832316F74041018280716594
:1015800041111305052006C6D937B73700401307A8
:1015900070F82381E7400D47A381E740130700045B
:1015A000A380E74005472387E740B240410182809E
:1015B000B73700402147B736004091E1828003C62B
:1015C000B740E30CC7FE05050346F5FFFD15C20550
:1015D0002384C640C181D5B78147B736004003C7D1
:1015E000A6401396070141821377F70F19E332855E
:1015F000828003C686403307F50085072300C700B5
:10160000F9BF011106CE2EC615CD1841AA8705C314
:1016100058417D5511CB8546631BD7009847230061
:10162000070023A207000545F24005618280984724
:10163000B2462300D7009847050798C7D8437D17BF
:10164000D8C3D5B705466C00E935F1BF797122D40E
:1016500026D24ECE52CC56CA06D64AD05AC82A8A6C
:10166000AE8A328481449309000263440602B38740
:101670009A00838707009DE363D6840263D2E40265
:10168000198C93F726009309000281C719E3930987
:101690000003858A01499DE6228929A88504C1BFE6
:1016A000058CC5B70144F1BFCE8552853AC6913F3E
:1016B00032477D19E34A20FF228963530400014920
:1016C0003304244163CBE402CA84B3872441D69710
:1016D000838507009DED2289634120056353040043
:1016E000014433059400B250225492540259F249F5
:1016F000624AD24A424B45618280B3049740268BAE
:101700009305000352857D1BED3DE31B0BFE2699DF
:1017100065BF5285FD3585044DBFCE855285D535D3
:101720007D195DBF5D71A6C252DC86C6A2C4CAC067
:101730004EDE56DABA843E8A9DE1930700030147E4
:10174000D28626862C08231CF1000937B640264491
:1017500096440649F259625AD25A616182802A89B6
:101760003684C68A91CAA94701446317F60063D537
:101770000500B305B0400544A30701029307F10239
:10178000A546130568FC33F7C50263D3E6002A9724
:1017900013070703A38FE7FE9389F7FF33D7C5022B
:1017A00063F7C50401CCB9C413772A0021C7930598
:1017B000D0024A8542C6B1353248FD1493774A00BB
:1017C00099CF93071006930500034A85631CF8021E
:1017D0000D3D930580074A852D350904F914568778
:1017E000D2862686CE854A859535229585B7BA85D7
:1017F000CE8751BF1307D002A38FE9FE014493891E
:10180000E7FF6DBFFD3B93058005F1B71D71CEC6A7
:10181000DAC0BE8986CEA2CCA6CACAC8D2C4D6C2F5
:101820005EDE62DC66DA6AD86ED6B3E7C500428B4C
:101830008DEB930700030147C2864E862C002314CC
:10184000F1002935F6406644D6444649B649264A51
:10185000964A064BF25B625CD25C425DB25D2561EA
:101860008280AA8A368A3A89AE84328419CFA947FF
:101870000149639CF600635A0600B304B040B337D5
:1018800090003304C0401D8C0549A30F0100130DC7
:10189000F101935DFA41A54C138C68FC5286EE86EB
:1018A0002685A285EF00B00963D3AC0062951305CD
:1018B0000503A30FADFE5286EE862685A285930B07
:1018C000FDFFD5216366B40163988D0263F644037E
:1018D000630C09006386090293772B0095C3930577
:1018E000D0025685393BFD190147DA864E86DE85E2
:1018F0005685A93B4A95B9B7AA842E845E8D79BFD7
:101900009307D002A38FFBFE0149930BEDFFE9BFC4
:10191000397126DA5AD0AA842E8B2E85B28506DE3E
:1019200022DC4AD84ED652D456D25ECE62CC66CA9B
:101930006AC8B28B36893AC6BE8942C4468AEF204D
:10194000A04D32472248AE8CBA87AA850547D28877
:10195000CA8666862A8C2685553D2A8D9305E00227
:1019600026854531050D8147854A0144294763CCC9
:1019700037076285E685EF20E0552A86AE865A85D0
:10198000DE85EF10704E2A8BAE8B5685A285EF2038
:1019900060542A86AE865A85DE85EF107001EF20EE
:1019A000A04713D6F541318DB347B600B305C54006
:1019B0003335B5003386C740D288CE87CA86098EB4
:1019C0000948268505479935F25062546A95D254E4
:1019D0004259B259225A925A025BF24B624CD24C93
:1019E000424D21618280B306870285073334570355
:1019F000B30A57033694A5BF39715AD037AB0000EC
:101A000022DC26DA4AD84ED652D456D25ECE62CCEA
:101A100006DE66CAAA892E893284014A8144930B64
:101A20005002930AB002294C130B4B8D8305090019
:101A300085E56385090081454E85E136F2506254A3
:101A400026854259D254B259225A925A025BF24B1D
:101A5000624CD24C21618280638775014E85553678
:101A600085040509E1B783071900930C19006399F0
:101A70007701930550024E85693685046689D5B78E
:101A8000CDDB6387570563C8FA0013073002638410
:101A9000E704814705A01307D002638AE700130714
:101AA0000003E398E7FE930C2900894721A0930CDB
:101AB0002900854703870C006303570563C1EA02C9
:101AC00093063002630BD70266890146A54535A807
:101AD000930C29007DBF930C29009147E1BF930629
:101AE000D0026309D70093060003E31FD7FC93E7F6
:101AF000270031A0850C8547C1BF93E74700850CBF
:101B0000E1B73306860305093696030709009306F5
:101B100007FD13F5F60FE3F6A5FE9305E0029946DF
:101B2000631EB70005098146A54503070900130791
:101B300007FD1375F70F63F5A502368A0307090041
:101B40009305A0066308B70A63C1E5029305C004C4
:101B50006302B70A930580066307B70881451DA88D
:101B6000B38686030509BA96C9B793054007630390
:101B7000B7089305A007630FB7061305C006814594
:101B8000631AA700030519008D456314E5000509D4
:101B900091450509030709001305000613081006FF
:101BA0006344E50013081004130570066341E5065D
:101BB00013055006635DA71413057004634EE50218
:101BC000930550046355B71493063004E31BD7E81C
:101BD0001840930C4400A30601002306E100BE86D2
:101BE00001476C0051A0030519008145E314E5FA93
:101BF00009094DB705099DB793063006E30AD7FCDE
:101C000063CAE606930680056303D70299BD93066F
:101C100030076303D70463CAE6029306F006630342
:101C2000D70C9306000793E74700E31CD7E2114760
:101C30006393E50A1D04937584FFC28813848500AD
:101C40003E880147B287C14699A0930650076301B9
:101C5000D706930680074DBF1840930C4400DA85E1
:101C600011C3BA855287BE864E85EFF03F9EAA9477
:101C70006684C5BB11476393E5021D04937584FF19
:101C8000C288138485003E880547B287A946D041A3
:101C90008C414E85EFF09FB7AA94E1B30C40D288F7
:101CA00011043287854629464E85EFF0BFA7EDB770
:101CB0001147639CE5001D04937584FFC28813845B
:101CC00085003E880147B287D1B70C40D288110405
:101CD00032878146C9BF0C4032871104D2888146C1
:101CE0004146D9B71147639DE5001D04937584FFF4
:101CF000C288138485003E880147B287A14641BF50
:101D00000C4032871104D2888146214671BF1D04E0
:101D1000937584FF3307D64013848500D0418C41EE
:101D2000C2887D173E884E85B687A946D536ADB7A1
:101D300039712ED232D4AA855010014506CE36D63E
:101D40003AD83EDA42DC46DE32C67D31F2402161CD
:101D50008280011122CC26CA06CE83470500AA84C0
:101D60000144A307F1008307F100050485E3A947B7
:101D70009305F10005460145A307F100EFF06FF967
:101D80002285F2406244D244056182800546930573
:101D9000F1000145EFF0EFF7B387840083C7070038
:101DA000A307F100C9B7B687B2882A832E88639D3E
:101DB000061463F9C50A4167636EE61AB7070001A6
:101DC0006363F63493568601E147178700001307D3
:101DD00027BD369703470700BA97130700021D8FE8
:101DE00019CB3398E500B357F500B318E60033E894
:101DF00007013313E50013D608013355C802939643
:101E00000801C182935703013377C802B385A60244
:101E100042073368F700637AB80046989307F5FFE6
:101E2000636418016367B8303E853308B8403357A0
:101E3000C8024203135303013378C802B386E60293
:101E4000420833686800637BD80046989307F7FF21
:101E50006365180179176363D8003E874205598D81
:101E60008145828001E60547B358C702416763EAAE
:101E7000E80EB707000163ECF82893D68801E14724
:101E8000178700001307C7B1369783460700BE9631
:101E900093070002958FE5EB939E08013387154168
:101EA00013DF080193DE0E01854593570301335577
:101EB000E7033377E703B306D5034207D98F63FA05
:101EC000D700C6971307F5FF63E4170163E6D7262B
:101ED0003A85958F33D7E703420313530301B3F7D2
:101EE000E703B30ED703C207B3E7670063FBD7016D
:101EF000C6979306F7FF63E51701791763E3D701E8
:101F000036874205598D828063E2D504C16763E25A
:101F1000F604B707000163E4F61E13D78601614893
:101F2000978700009387C7A7BA9703C70700130EC8
:101F300000024297330EEE40631A0E0C63EDB61C9E
:101F40003335C50013451500814582808145014523
:101F500082809307F00F63F3D71C13D786002148C4
:101F6000C1B71307F00FC686E37C17F193D688003C
:101F7000A14739B71307F00FB286E378C7E4935649
:101F80008600A14799B5B398F80033D6D50013DF82
:101F90000801335EE6033397F500B356D500558F3D
:101FA000939E080193DE0E013313F500935507014C
:101FB000B376E603B387CE03C206CD8E63FBF6008D
:101FC000C6961306FEFF63E4161763F2F616791E33
:101FD000C6969D8E33D6E60393170701C183B3F6E9
:101FE000E6033385CE02139706015D8F637BA7005E
:101FF00046979307F6FF636817136376A71279165F
:10200000469793150E01098FD18D45B5B357E6005C
:10201000B396C601DD8E33D3E50013DF0601B35757
:10202000E303939E060193DE0E013398C5013357F7
:10203000E50033680701935808013316C60133736E
:10204000E303B385FE024203B368130163FBB800E8
:10205000B6981387F7FF63EAD80C63F8B80CF91742
:10206000B698B388B84033D7E8034208135808013C
:10207000B3F8E8033383EE02C208B3E5080163FB5B
:102080006500B6951308F7FF63EDD50863FB650897
:102090007917B695C207416FD98F1307FFFFB3F6C3
:1020A000E70093D80701718F4182B38EE602B385B2
:1020B0006540B386C60213D80E013387E802BA968C
:1020C000C2963386C80263F3E6007A9693D8060177
:1020D000469663E2C5026385C5003E8581458280E0
:1020E00041677D17F98EC206B3FEEE003315C501B8
:1020F000F696E374D5FE1385F7FF8145828013D7EA
:102100000601414831BD93560601C1477DB993D6BA
:102110000801C147B5B3814505458280368701482E
:1021200001B5428785BF3E86E9BDBA871DBF328EA5
:102130004DB579154698D5B97915C69759BBB68767
:1021400032882A832E872E8E6393061463F1C50A84
:1021500041676378E61A1307F00FB2866375C7000C
:1021600093568600A14717870000130767833697A9
:102170000347070093080002BA97B388F840638CBE
:102180000800B3951501B357F5003318160133EE67
:10219000B7003313150113560801B357CE021315B8
:1021A0000801418193560301337ECE02B307F50245
:1021B000420E3367DE006378F700429763650701DC
:1021C0006373F70042971D8FB356C702931703013D
:1021D000C1833377C7023305D5024207D98F63EC39
:1021E000A7083385A740335515018145828001E654
:1021F00005473358C7024167636CE80EB707000113
:102200006365F82A93568801E147177700001307A2
:10221000277936970347070093080002BA97B388D7
:10222000F840639A081E131E0801B3850541135632
:102230000801135E0E0113570301B3D6C502B3F5AF
:10224000C502B386C603C2054D8F6377D700429798
:1022500063640701636AD726158F3355C7024203AB
:10226000135303013377C7023305C5034207B3672E
:10227000670063F8A700C29763E5070163F3A7004F
:10228000C2973385A74033551501814582802A883E
:10229000E3EED5F4C16763E5F604B707000163E236
:1022A000F62013D38601E148977700009387476FA4
:1022B0009A9703CE070013030002469E3303C341DF
:1022C0006319030463E4B6006369C5003308C540BD
:1022D000958D333705013387E5404285BA85828085
:1022E0009307F00F63FBD71C13D38600A1486DBF83
:1022F0001307F00FC286E37A07F193568800A147CF
:1023000029B7B70700016366F61A93568601E147BD
:1023100099BDB357C601B3966600DD8EB3D8C5012B
:1023200013D70601B3DEE802139F0601B357C501B8
:10233000135F0F01B3956500DD8D13D805013316CA
:10234000660033156500B3F8E802B307DF03C2087F
:1023500033E80801637BF80036989388FEFF6363D7
:10236000D8166371F816F91E36983308F840B3573B
:10237000E802C205C1813378E802330FFF02131768
:1023800008014D8F637BE70136979385F7FF6369FB
:10239000D7126377E713F9173697C20EC162B3EE0F
:1023A000FE001388F2FFB3F80E019355060193DE89
:1023B0000E0133780601B38F08033307E7413388F2
:1023C0000E0393D70F01B388B802C298C697B38E95
:1023D000BE0263F30701969E41687D1893D50701FD
:1023E000B3F70701C207B3FF0F01F695FE976362CB
:1023F000B70A630EB708B307F5403335F500B305E8
:10240000B740898D339EC50133D567003365AE0073
:10241000B3D5650082803318180133D7F500135601
:102420000801B356C702131E0801B357F500135E27
:102430000E01B3951501DD8D93DE050133131501F2
:102440003377C702B307DE0293160701B3E6D6015E
:1024500063F8F600C29663E5060163F3F600C296E0
:102460009D8E33D7C60293970501C183B3F6C6028A
:102470003307EE0293950601DD8D63F8E500C29502
:1024800063E5050163F3E500C295998D6DB3E374CF
:10249000F5F63386C740B3B7C700B6979D8DB287B0
:1024A00099BF13D30601C14801B593560801C1472E
:1024B000A9BB93560601C1477DB136838148EDB370
:1024C000AE87E1BDC68E55B5429779B33708100087
:1024D00001117D183377B80026CA3378D80093D419
:1024E000450113D34601131E37004EC61357D501BD
:1024F0000E089357D60193F4F47F1373F37F06CE3F
:1025000022CC4AC893D9F50193DEF6013367C7019F
:10251000131F350033E80701931F3600338E6440E4
:102520006380D9196356C0136304031CB706800087
:102530009307F07F3368D800638FF43693078003E6
:1025400063C0C735FD4763CDC74713050002330598
:10255000C541B3D7CF01B316A8003399AF00DD8EC4
:1025600033392001B357C80133E926011D8F3309E0
:102570002F41B3372F013306F7409317860063D4FA
:102580000724370780007D173374E600630C042CA2
:102590002285EF20207A130785FF93070002998F89
:1025A000B357F9003316E400D18F3319E9006341C2
:1025B000972A33059740130615007D47634DC738AA
:1025C00013070002118FB356C9003319E90033977E
:1025D000E700558F333920013369270133D6C7000F
:1025E00081449377790081CF1377F900914763088D
:1025F000F70013074900333927014A963A899317A0
:10260000860063D6071C138514009307F07FCE85E0
:102610006304F520B70780FFFD17F18F9398D7016A
:1026200013593900A607B3E82801B1831375F57F64
:102630009396C7005205F2406244B182FE05C98EEE
:10264000CD8ED2444249B2494685B6850561828025
:10265000631E0E0A138314001373E37F63170322B0
:10266000B367E701B368F801639D041A6387074005
:10267000638608443309FF41B307074133362F010E
:102680003386C7409317860063D6074C3389EF41E2
:10269000B307E84033B62F013386C740F68991B7B8
:1026A0006350C00F6300030CB70680009307F07FF0
:1026B0003368D800638AF43A9307800363CBC71367
:1026C000FD4763DFC73513090EFE93070002B356BB
:1026D0002801630AFE00130900043309C9413319B4
:1026E0002801B3EF2F013339F0013369D90031A24A
:1026F000B367F801638A071C9307FEFF638C0738F2
:102700009306F07F6309DE1A3E8E0DBDB30593403C
:1027100063910422B367E701638707329387F5FF6C
:10272000638107449306F07F638CD520BE859307B1
:10273000800363CCB72AFD4763CFB73C9307000201
:102740008D8F3319F700B356BF00B317FF003369FD
:10275000D900B337F0003357B7003369F9003308B5
:10276000E84041ACB367F801638007349307FEFF8C
:10277000638A07209306F07F6308DE2E3E8E2DBF0E
:10278000631E0E149386140093F7E67F639107345B
:10279000B367E7016395042C6380073EB367F801D4
:1027A000638E07303309FF01B3070701333FE901A7
:1027B0003386E7019317860063D70700B70780FFCA
:1027C000FD177D8E854493777900E39F07E093178B
:1027D000D60193583900B3E8F80093573600130731
:1027E000F07F638DE404B207B18313F5F47FCE85E7
:1027F00081B53369F801333920017A99B337E9019A
:102800003386E70093178600E3DF07FA8504930712
:10281000F07F6396F418CE851305F07F81478148D9
:1028200001BDC1EB6384083A931636009317D801B3
:102830008D82B3E8D700F68993573800B3E7F800E4
:10284000F9DB81451305F07FB70708008148CDB358
:10285000370680FF7D167D8E93777900998CE395FE
:1028600007D8B5B74A85EF20E04C13078501FD472F
:10287000E3D5E7D2130685FFB317C900014905BBAD
:102880003369F80133392001DDB13309FF413306E3
:10289000074133342F01330486409317840063CDFE
:1028A0000724B3688900E39308CE814781498144B6
:1028B0001DBFE39808F80E059317D7010D81B3E803
:1028C000A700935737009DBF0E059317D7010D81C1
:1028D000B3E8A700F2849357370011B7330593404C
:1028E00063820412B70680009307F07F558F630D53
:1028F000F32E9307800363CBA720FD4763C3A72A6A
:1029000093070002898F3319F700B356AF00B3174E
:10291000FF003369D900B337F0003357A70033699C
:10292000F9003A987E99B337F901338607019A8402
:10293000D1BDB70680009307F07F558FE319F3DE12
:10294000931736008D839318D801B3E81701F689E1
:1029500093573800E5B5130715FE9306000233D7E9
:10296000E700630AD600930600043386C640339618
:10297000C7003369C900333920013369E9000146D2
:10298000814491B53309FF01B30707013336E901EB
:102990003E96931786008544E3D707E28944B7073C
:1029A00080FFFD17F18F1357190013791900336950
:1029B00027019398F70133E9280113D6170015B1C1
:1029C00013090EFE93070002B3562801630AFE00A6
:1029D000130900043309C94133192801B3EF2F014A
:1029E0003339F0013369D90059B63369E701333916
:1029F000200133892F41B3B72F013306F8409A8461
:102A0000F689A5BEB367E701638207189307F5FF50
:102A10006384071C9306F07F6304D5123E85D1BD05
:102A200093070002B387C741B316F8003399FF003C
:102A300033D6CF01D18E33392001B357C80133E9E2
:102A400026013E975DBB931736008D839318D801FE
:102A5000B3E81701AE8493573800F68949B3EDC344
:102A60003369F801E31F09DC0E059317D7010D81C7
:102A7000B368F50093573700D1B36381080E9316FE
:102A800036009317D8018D82B3E8D700F6899357A3
:102A9000380091BB3309FF41B3070741333F2F0192
:102AA0003386E7418544D1BC0E059317D7010D81CC
:102AB000B368F500F2849357370015B30E059317EA
:102AC000D7010D81B3E8A7009357370029BB9307BF
:102AD000F07FE382F6D43309FF013336E901B3070F
:102AE0000701B2979398F7011359190033E92801A8
:102AF00013D61700B684C1B93389EF413307E840D4
:102B000033B62F013304C740F68949B43369E7016E
:102B10003339200101BD938705FE93060002B357A8
:102B2000F700638AD50093060004B385B6403317D7
:102B3000B700336FEF003339E0013369F90055BD59
:102B4000931736008D839318D801B3E81701935774
:102B50003800EDB1B368C900E39708C681478149E1
:102B600059B13389EF41B307E84033B62F013386BB
:102B7000C740F689854411B4931636009317D801DF
:102B80008D82B3E8D70093573800B1B99316360059
:102B90009317D8018D82B3E8D700AA8493573800E1
:102BA0003DB9930705FE93060002B357F700630A89
:102BB000D500930600043385A6403317A700336F72
:102BC000EF003339E0013369F900A9BB81451305F2
:102BD000F07FB7070800A9BC3309FF01B30707015D
:102BE0003336F9013E9675B3931636009317D80124
:102BF0008D82B3E8D7009357380089B1397193D7E4
:102C0000450122DC4AD856D22A891394C50006DE33
:102C100026DA4ED652D45AD05ECE13F5F77F3180E5
:102C200093DAF501630B05109307F07F630BF5143E
:102C3000135AD9010E0433648A00370A8000336ABC
:102C40004401131B3900930415C00144814B13D870
:102C500046011399C6001378F87FB2881359C9004A
:102C600093D9F601630E08089307F07F6300F80418
:102C70001357D6010E0933692701130818C0B70787
:102C800080003367F90093183600B384044181450E
:102C9000BD4733C83A0163E4871A977700009387EA
:102CA00027C40A043E9410403E9602863367C9004A
:102CB00093841480631207101364240081488945AB
:102CC000C1BF1306F07F81470147B207F25062543B
:102CD0005206B1837E08D18FB3E70701D25442591F
:102CE000B259225A925A025BF24B3A85BE85216153
:102CF000828001481306F07FB70708000147F1B74B
:102D00003367C9004DC7630809304A8532C4EF20D4
:102D100060022246130755FFF547930685FF998FFA
:102D20003319D900B357F60033E72701B318D6009B
:102D300026959304353F8145A1BF336A240163037F
:102D40000A0636C632C46306042A2285EF10907E36
:102D50002246B246AA84130755FF754A138B84FF97
:102D6000330AEA4033146401335A4901336A8A0052
:102D7000331B69011305D0C0B30495400144814B56
:102D8000F9B5336A240163180A002144014B930406
:102D9000F07F894B6DBD228A4A8B31449304F07FCA
:102DA0008D4B75B51144014B8144854B4DB5136472
:102DB000140081488545E9BD136434004A878D4578
:102DC000C1BD630A052E8547898F9306800363DDA5
:102DD000F632014681470147CDBDCE868947638DD6
:102DE000F53A8D47E387F5F085473688E383F5FEAE
:102DF0001385F43FE357A0FC93F778006396072808
:102E000093D638009317770063D80700B70700FF01
:102E1000FD177D8F138504409307E07FE3C3A7EA86
:102E20001316D70193179700B1833367D600137633
:102E3000F57F61BDD6865287DA88DE8545B7636146
:102E40004723630DEA20DA86FD145284014B931761
:102E5000870013D388013363F300935E0301B357F4
:102E6000D403131F0301135F0F0193D50601139EB3
:102E700088003374D4033307FF024204C18D63FB1F
:102E8000E5009A951386F7FF63EE652663FCE52659
:102E9000F9179A95998D33D7D503C206C182B3F538
:102EA000D5033306EF02C205D58D63FBC5009A95A5
:102EB0009306F7FF63E6652463F4C52479179A95B2
:102EC000C20741645D8F9307F4FF3375F700935891
:102ED0000701935F0E01B377FE00B302F502B386DC
:102EE000C540B383F80293D502013386AF021E9624
:102EF0002E963385F803637376002295C168FD181A
:102F000093550601337616014206B3F81201AA95CD
:102F1000469663E6B6126382B6123306CB408D8EB8
:102F2000333BCB00338B66411385F43F630C63174F
:102F3000B358DB0393550601337BDB03B3061F0352
:102F4000420B33EB6501637BDB001A9B9385F8FF33
:102F5000636D6B20637BDB20F9181A9B330BDB401E
:102F6000B356DB0342064182337BDB03330FDF02C0
:102F7000420B33666601637BE6011A969385F6FF82
:102F80006367661E6375E61FF9161A96C208B3E8F2
:102F9000D8009395080193D20801C181B38EF50240
:102FA0003306E641B385BF0293D60E01B387F20222
:102FB000BE95AE96B38F5F0263F4F600C167BE9F05
:102FC000C165FD1593D70601ED8EC206B3FEBE00A6
:102FD000BE9FF696637FF6091A969387F8FF63699A
:102FE000661A6368F619630FF61BBE8893E818002B
:102FF00011B54A85EF10105413075501F14593049C
:1030000005022246B246E3DAE5D4130485FF331AFB
:103010008900014B85B3328532C4EF10B0511307DC
:103020005501F146AA87224613050502E3D6E6CEEE
:10303000E1173317F6008148E5B9E370CBEE729BD8
:103040003335CB011A95AA961305F7FF6378D3029F
:1030500063E6B6106382D5102A87C1B5E3651BDF2E
:1030600093551B009316FA0113541A00CD8E7E0B54
:10307000F9BBE31DF6F7E38F06D6B9BFE31ED3FC19
:10308000E378CBFD2A8751BD93F7F8009146E38999
:10309000D7D693B7C8FF9386480093C717008D8291
:1030A0003E978DB381468547E34CA0FEFD58E31C57
:1030B00005D0930410C085471385E441B316A700DB
:1030C00033D6F8003395A800D18E3335A000C98ED1
:1030D00013F676003357F70001CE93F7F60011464A
:1030E0006388C70093874600B3B6D7003697BE867D
:1030F0009317870063D80704054681470147F1B657
:1031000036877DBBB28779B3FD46E3D7F6FA05561D
:10311000098E930600023356C7006388D700938751
:10312000E443B317F700B3E8F800B3361001D18ECB
:1031300013F67600814701CE93F7F600114601475A
:10314000E392C7FA931797001316D701B18313D7E9
:103150003600518F014695BEE370CBF0729B33353C
:10316000CB011A957917AA964DBBAE88C5BBAE8622
:1031700031BD93171E0033BEC70172931A96F9181A
:103180003E8EE315F6E7E307DEC693E818009DB12F
:10319000BE88E30AF6FF99BD36881306F07F8147A3
:1031A000014725B6E367DEFCBE88E310DEFE99B179
:1031B00039714AD813D945014ED652D456D2939973
:1031C000C50006DE22DC26DA5AD05ECE1379F97FFE
:1031D0002A8A93D9C90093DAF501630D090E930782
:1031E000F07F6306F9181354D5018E09B3693401D1
:1031F0003704800033E4890093143500130919C0A3
:103200008149814B13D74601139AC6001377F77F84
:10321000B285135ACA0013DBF601630B071093073C
:10322000F07F6303F7049357D6010E0A33EA470190
:10323000130717C0B7078000B367FA00931536006D
:103240003A99814833C76A01BD463A851308190087
:1032500063E83617176600001306866C8A09B29970
:1032600083A60900B2968286B367CA001309F97F64
:103270006399071293E9290081458948E1B701471D
:103280009307F07F3704080081443204D20731806D
:103290007E075D8C598CA285F25062542685425976
:1032A000D254B259225A925A025BF24B2161828067
:1032B0005A853E84AE84C68B8947638DFB0E8D474D
:1032C000E38FFBFA85472A87639EFB3881470144D9
:1032D000814465BF33E4A90061C036C632C4638C43
:1032E000092A4E85EF1010252246B246AA871307F9
:1032F00055FF7544938487FF198CB3999900335413
:103300008A0033643401B3149A0013D746011309B9
:10331000D0C0139AC6001377F77F3309F94081496B
:10332000814BB285135ACA0013DBF601E31907EE8D
:10333000B367CA00B1C7630F0A22528532C4EF10C7
:10334000701F22462A87930655FFF547930587FF8E
:10335000958F331ABA00B357F600B3E74701B31598
:10336000B6003309E9401309D9C08148E1BD33E40F
:10337000A90001ECA14981441309F07F894B59B59B
:1033800093E919008145854875BD4E84AA84B149E9
:103390001309F07F8D4BBDB5914981440149854B9F
:1033A00095B593E93900D2878D4869BD894756851F
:1033B000E397FBF02A879307F07F01448144F1B53E
:1033C000C16E1386FEFF93D6040113DE0501F18C56
:1033D000F18D338695023383B60293580601330587
:1033E0009E021A95AA98B382C60363F36800F69208
:1033F000C16F1383FFFF33F5670093D30701B3F762
:103400006800C207337366003E933306950293D873
:103410000801B387A602135F0601B3849302BE942A
:10342000FA94B38E760263F3F400FE9E416A93072A
:10343000FAFF935F0401B376F400B3F9F4007D8ED4
:10344000C1803384D502C209338FD401B299CE989A
:10345000B307DE02935E0401B385BF02AE97BE9E42
:10346000330EFE0363F3BE00529EC1679385F7FFE0
:1034700033F6BE006D8C4206229693DE0E01B30534
:10348000D502769E3385AF0213D40501B386D302ED
:10349000AA96A296B38FF30363F3A600BE9F41657D
:1034A0007D15B3F7A600C2076D8DAA97B3855800A6
:1034B000B3B93501FA97B2953384370133B6C500F5
:1034C000B30EC4013385CE0033343401B3B7E70102
:1034D000C18F33BECE0113D406013336C5003E94EE
:1034E0003366CE009394950032947E94B3E46400E6
:1034F000260493567501B3349000DD81931795002F
:10350000CD8C558CDD8C9317740063DB070093D74B
:10351000140085889316F401DD8CD58C05804289D2
:103520009307F93F6359F00893F6740081CE93F640
:10353000F40011466388C60093864400B3B4960035
:103540002694B6849316740063D80600B70700FF6C
:10355000FD177D8C930709409306E07F63CFF60E3D
:1035600093D634009314D4012604D58C318093F77C
:10357000F77F21BB328532C4EF10C07B9306550123
:10358000F147130705022246E3D1D7DC6115B317D3
:10359000A6008145F9B3EF10E07913075501F14515
:1035A000930705022246B246E3D5E5D461153314EC
:1035B000AA00814499BB85469D8EB1E71309E94174
:1035C000B3972401B3D4D40033192401B337F000E6
:1035D000B3649900DD8C93F77400B356D40081CFA7
:1035E00093F7F40011466388C70093874400B3B48F
:1035F0009700A696BE849397860063D807048547F4
:103600000144814459B113068003E341D6CC7D4681
:10361000E356D6FA0556B307F64093050002335633
:10362000F4006387B6001309E943B3172401DD8C66
:10363000B3349000D18C93F67400014499CA93F787
:10364000F40011468146E392C7FA13949600318044
:10365000F6068D80D58C81470DB99307F07F014424
:10366000814425B142896DBD370710007D170111D6
:103670003373B70093D84601758F935ED60122CC81
:1036800026CA0E0393D445019357D5010E0706CEE3
:103690004AC84EC693F8F87F130EF07F33E7EE006A
:1036A00093F4F47F13D4F50133E36700131F35005F
:1036B000FD82931E36006380C81993C61600B38539
:1036C00014416305D4126351B018638B081AB7070D
:1036D00080005D8F6381C4599307800363C4B7344E
:1036E000FD4763C5B748930700028D8FB3D9BE006D
:1036F0003318F700B39EFE00336838013357B70024
:10370000B339D001336838013303E340B3090F41C3
:10371000B3373F013306F3409317860063D3072482
:10372000370980007D1933792601630F092C4A85FA
:10373000EF104060130785FF93070002998FB3D7FE
:10374000F9003316E900D18FB399E9006344972A51
:10375000058F13061700FD4663C5C63A130700021E
:10376000118FB3D6C9003398E9003397E700558F1E
:1037700033380001B369070133D6C700814493F79A
:10378000790081CF93F6F90091476388F60093861C
:10379000490033B836014296B6899317860063D63E
:1037A000071C138714009307F07F05886306F72032
:1037B000B70780FFFD17F18F1398D70193D9390010
:1037C000A60733683801B1831377F77F9396C70054
:1037D0005207B1827E04D98EC18EF2406244D24437
:1037E0004249B2494285B685056182806356B00A76
:1037F000638A0812B70780005D8F6387C42D930723
:10380000800363C7B718FD4763D2B73C138805FE32
:1038100093070002B3590701638AF5009307000478
:10382000B385B7403317B700B3EEEE003338D0019D
:103830003368380195A2B367D7019385148099E363
:1038400093C61600630AD404D1E19387140093F75A
:10385000E77F6399071EB367E3013368D70163927B
:1038600004166382073C631608421318350093164A
:10387000D3011358380033E806019357330019A2D7
:10388000B367D7016385071A9387F5FF638B073A00
:10389000638CC523BE8589B56399051C9386140086
:1038A00093F7E67FC1EFB367E30163900436638D5E
:1038B0000744B367D701639407460E051318D30175
:1038C0000D813368A800935733006DA8B3859840E5
:1038D00063970420B367E301638D07309387F5FF97
:1038E000638907401305F07F6383A520BE85930796
:1038F000800363C2B72AFD4763C8B73C9307000241
:103900008D8F3318F3003356BF00B317FF003368B1
:10391000C800B339F0003353B300336838013307BC
:103920006740B5ACB367D701638307109387F5FF92
:10393000638F071E6380C52FBE85D1B59307F07FC7
:10394000638BF606FA9E33B6EE01B307E300B29737
:103950001398F70193DE1E00B369D80113D6170040
:10396000B68493F77900E39F07E09317D60113D845
:1039700039003368F800A685935736001307F07FA7
:103980006380E506B207B18313F7F57F05883DBD77
:103990003367D7013338E000B309E801B3B7E90171
:1039A0003386670093178600E3DD07FA85049307E3
:1039B000F07F639CF41805881307F07F8147014866
:1039C00031B5639107106301083C13183600931753
:1039D000D701135838003368F800368493573700FE
:1039E000B367F800E9DB01441307F07FB70708006D
:1039F0000148E9BB370680FF7D167D8E93F779007D
:103A0000998CE39107D895B74E85EF10A032130734
:103A10008501FD47E3D2E7D2130685FFB397C900BE
:103A200081492DB33368D70133380001C5B113186C
:103A300035009317D301135838003368F8009357B3
:103A400033002DBFB309DF413309E34033363F0173
:103A50003309C9409317890063CA072033E8290155
:103A6000E31508CC8147014431BFB3859840638199
:103A70000414B70680009307F07F3363D30063819B
:103A8000F8209307800363CCB722FD4763C9B72CA6
:103A9000930700028D8F3318F300B356BF00B3179E
:103AA000FF003368D800B339F0003353B3003368F4
:103AB00038011A97B309D801B3B7D9013386E700A3
:103AC000C684CDB5E31108F2131835009317D3015E
:103AD000135838003368F8009357330011B737058F
:103AE00080009307F07F3363A300E392F8E00E06B3
:103AF0001318D7010D823368C800935737003684F6
:103B0000C5B505179306000233D7E700630AD60050
:103B1000930600043386C6403396C700B3E9C90054
:103B200033383001B369E800014681441DBDB30953
:103B3000DF01B307E30033BFE9013386E7019317E1
:103B400086008544E3DF07E08944B70780FFFD175F
:103B5000F18F13D7190013F81900336807019399EF
:103B6000F701B3E9090113D6170011B9138805FE4F
:103B700093070002B3590701638AF5009307000415
:103B8000B385B7403317B700B3EEEE003338D0013A
:103B900033683801A5BE3363E30133386000B3896D
:103BA0000E41B3B73E013306F740C6843684ADB646
:103BB000B367E301638707189387F5FF638C071CDE
:103BC0009306F07F638ED50ABE8565BD930700021C
:103BD0008D8FB3D9BE003318F700B39EFE00336853
:103BE00038013357B700B339D001336838013A93FD
:103BF00065B3131836009317D7011358380033E80C
:103C0000070136849357370095BBBDCB3367D70187
:103C1000E31B07DC0E051318D3010D813368A800E0
:103C20009357330075BBE30F08E213183600931760
:103C3000D701135838003368F8003684935737009B
:103C400091B3B309DF41B307E340333F3F0133860C
:103C5000E7418544D1B4131835009316D3011358A6
:103C6000380033E80601935733009DBBB389EE411A
:103C70003306674033B93E0133092641368475B4B3
:103C80000E061318D7010D823368C800935737000A
:103C900081BBB309DF41B307E34033363F013386CD
:103CA000C7409317860063D7070AB389EE41B3076D
:103CB0006740B3BE3E013386D7413684C9B433630F
:103CC000E30133386000FDB3138805FE930700025B
:103CD000B3590301638AF50093070004B385B74025
:103CE0003313B300336F6F003338E00133683801AA
:103CF0007DB5B389EE41B3076740B3BE3E0133865D
:103D0000D7413684854409BC131836009317D70170
:103D1000135838003368F80093573700A5B1B3093A
:103D2000DF01B307E30033BFE9013386E7019317EF
:103D30008600E3D807C2B70780FFFD177D8E854454
:103D40000DB10E061318D7010D823368C8009357C2
:103D500037002DB133E8C900E30608D019B1138844
:103D600005FE93070002B3590301638AF500930728
:103D70000004B385B7403313B300336F6F0033389B
:103D8000E001336838013DB301441307F07FB70702
:103D900008002DBCB309DF01B307E300B3BED901AE
:103DA0003386D70169BB411106C622C426C20DCD98
:103DB0009357F541B3C4A7009D8C2A842685EF0054
:103DC00070779306E041898EA9477D8093F6F67F50
:103DD00063CDA7022D47098FB3D7E4005505B2077D
:103DE000B394A400B18329A0014481468147814452
:103DF000B207D206B1837E04D58FC18FB240224470
:103E00002685BE859244410182805515B397A40052
:103E1000B207B1838144E9BF3707100093D745014A
:103E20009306F7FF93F7F77F1308E03FED8E13D665
:103E3000F5016353F8029305D04363D2F50285453B
:103E4000918D3305B04013D6F541B7050080B337E7
:103E5000A000918D9D8D828001458145828013084F
:103E60002043B3E5E6006354F8021387D7BA93877B
:103E7000D7BC63450704B315E500014565D233059A
:103E8000A040B337A000B305B0409D8D828093065B
:103E900030439D8E7D47634CD7001387D7BE339741
:103EA000E5003355D500598DB3D5D500C1BF1305F5
:103EB00030411D8D33D5A5008145C9B7FD46135747
:103EC00015009D8E3357D700B395F500D98D331566
:103ED000F5006DB7011106CE22CC26CA4AC84EC6DF
:103EE000B367B5009DCFAE84AA8913D9F50163CE1F
:103EF00005042684ADC42685EF00D0639306E04315
:103F0000898E9307304363CAD7089397C4002D4620
:103F10004E8793F6F67FB1836359A600130655FFCB
:103F2000B9A80149814681470147B207F24062447E
:103F3000D206B1837E09D58FB3E72701D244424927
:103F4000B2493A85BE85056182803305A040B3360B
:103F5000A000B304B040958CAA892684C9FC4E8584
:103F6000EF00505D2A869306E04313050502898E13
:103F70009307A00293F6F67F63C7A70C55061307B5
:103F8000B002098FB397C40033D7E9005D8F931750
:103F9000C700B1833397C90049BF9307604363DB10
:103FA000D7022147098F930507FE63C2050CB3D5DD
:103FB000B40001471306850193078503634C060887
:103FC0003396C9008149B3E9C90033363001B3E9FA
:103FD000C5003A84A1474E8663C9A704B70780FF8E
:103FE000FD17937576003377F40085C59375F60059
:103FF0001148638005039305460033B6C500329728
:1040000013168700635106089306F0437D8F898E4F
:104010002E8613553600931797001316D701336772
:10402000A600B18393F6F67F09B793078002930544
:1040300085FF898FB3D7F9003317B40033E4E70065
:104040003396B90061BF5516B397C900B207B18363
:104050000147E1BD7D4613D819001D8E3358C800B5
:104060003396F4003366C800B399F900A9BF7D46C2
:10407000198E93971400B3D5E900B397C700DD8D6F
:1040800033D7E40005BF2E8669B74111370780009A
:104090007D1713D8750126C2935475013373A70099
:1040A00093F4F40FB376B7004AC01378F80F13599E
:1040B000F50106C622C4FD819A8726854A86131E0D
:1040C0003300939E3600B3880441630AB90E6350EF
:1040D000100D630408149307F00F638BF414B707F3
:1040E0000004B3EEFE00ED4763C1172993070002F9
:1040F000B3871741B397FE00B3D81E01B337F00062
:10410000B3E7F800B307FE4013975700635E071844
:10411000370400047D147D8C2285EF00B0416D15BD
:10412000B317A4006348951A058D130415001307EF
:104130000002018F3397E7003337E000B3D78700E1
:10414000D98F814413F7770019C713F7F700914609
:104150006303D700910713975700635B0714850427
:104160001307F00F4A866383E4169A07A58313F5B5
:10417000F40FB2402244A6079314750113D597009B
:10418000458D7E0692440249518D4101828063999A
:10419000080A138714001377E70F63170714639057
:1041A0000422630D0E1EE3860EFCB307DE41139757
:1041B000570063500722B387CE412E8961B7635CF5
:1041C000100B630E08089307F00F6383F406B7071C
:1041D0000004B3EEFE00ED4763C9171F930700020A
:1041E000B3871741B397FE00B3D81E01B337F00071
:1041F000B3E7F800F297139757006357070A85044F
:104200001307F00F6384E40CB706007E13D7170082
:10421000FD16858B758FD98F35B7638D0E08FD1808
:10422000B307DE41E38208EE9307F00FE39DF4EA63
:10423000630D030801461305F00FB707400015BFD3
:1042400033079840EDE863020E147D1763080718E2
:104250009307F00F6319F80E2E893683D1BF638B55
:104260000E04FD18B307DE01E38708F89307F00F8B
:10427000E393F4F675BF63950808850413F7E40F1C
:104280006313071263170510630F0E14E3830EEE1A
:10429000B307DE01139757008144635707003707C0
:1042A00000FC7D17F98F854413F77700E31F07E8BB
:1042B00013D337009307F00FE38CF4F693179300B2
:1042C000A58313F5F40F4A866DB54A861305F00FE2
:1042D000814745B5370700FC7D17F98F13F7770045
:1042E000898CE31407E6E9B73304DE4193175400E1
:1042F00063C3070CE31204E201460145814795BD03
:1043000033079840ADC49307F00FE308F8F4B707FC
:104310000004336EFE00ED4763CCE70C9307000208
:10432000998FB317FE003357EE00B337F000D98FE3
:10433000F697C284C9B59307F00FE30FF8F0B707FB
:104340000004336EFE00ED4763C3E70893060002E6
:10435000998EB316DE00B357EE003337D000D98FF5
:10436000B387FE40C2842E8945B3854761BB630E87
:104370000E067D17B307DE01C284E30E07E693073E
:10438000F00FE31AF8F8368365B53683C2842E89B8
:1043900015B7E3040EECE38D0EE869BD638D0E02E4
:1043A0002E86B687F9B39307F00FE381F4F2B307D3
:1043B000DE018583D5BD3384CE412E89B1BBE31C9C
:1043C0000EFCE3890EE62E8949BD854725B5854754
:1043D00041BFE39B07EC0146814761BBB387CE41F8
:1043E000C2842E8915B3B68769B33683C284D9B522
:1043F00085473DBF93567501B7078000FD1713D65B
:10440000750193F6F60F1308F00FB3F8A7001357D2
:10441000F501ED8F1376F60FFD8163810603630CC2
:1044200006018DE211E2B1C3638E08026305B70491
:1044300005451DE78280F5D779558280E39E08FE09
:104440006309D60211E2EDD7E314B7FEE342D6FECC
:1044500063C7C600E3EE17FD0145E3FDF8FC01E785
:104460007D558280F5DD054582800145E39208FC9B
:104470008280F9DBD1B78146E1BF93567501B7075A
:104480008000FD1713D6750193F6F60F1308F00F91
:10449000B3F8A7001357F501ED8F1376F60FFD81E2
:1044A000638706036309060185EA11EA89EB014582
:1044B000639B080082800945F5FFE5DA31A8638C2B
:1044C00008026300B704054575D77D55828009450C
:1044D000639808026304D60211E2F5D7E315B7FE2C
:1044E000E343D6FE63C7C600E3EF17FD0145E3F3E0
:1044F000F8FC19E3D9BFF1D905458280E5D3828064
:1045000082808146C5B7797122D4135475014ECE8D
:1045100052CC9319950006D626D24AD056CA5AC80C
:104520001374F40F93D99900135AF50169C49307D2
:10453000F00F6308F40E9397390037070004B3E9CE
:10454000E700130414F88144014B13D77501939AC3
:1045500095001377F70F93DA9A0013D9F50145CF39
:104560009307F00F630CF7028E0A130717F8B707CB
:104570000004B3EAFA003A94014633452A01BD47E4
:10458000AA869305140063E09710175700001307DD
:10459000273D8A04BA949C40BA9782871304F40F8B
:1045A00063960A0C93E424000946C1BF0145130732
:1045B000F00FB7074000B2502254A6075E07A5834C
:1045C0007E05D98F92540259F249624AD24A424B2F
:1045D0005D8D45618280CA86D689328B8947630F9B
:1045E000FB088D47E304FBFC854736856310FB1A07
:1045F00001478147C9B7639D090413D77501939A91
:1046000095001377F70F91440144054B93DA9A0014
:1046100013D9F50131F7639D0A0093E414000546B0
:10462000A9BF63920902A1441304F00F094B31BFE3
:10463000568509279307B5FF098CB39AFA0013042E
:10464000A4F801461DBFB1441304F00F0D4BF5BD96
:104650004E852EC6C5259307B5FF1304A0F8B39960
:10466000F900098C8144014BB245C5B593E434008F
:104670000D4621B78947D286E315FBF63685130729
:10468000F00F81470DBF41639306F3FF13D6090175
:1046900093D80A01B3F7D900B3FADA003388570385
:1046A000B389F80213570801B30A5603D6994E97F7
:1046B00033061603637357011A96C167FD17B37665
:1046C000F7003378F800C206C296939966009357B4
:1046D0000701B3393001E982B2979A07B3E6D900EE
:1046E000B3E9D7009397490063D9070013D719009E
:1046F00093F71900B369F7002E841307F40763508A
:10470000E00493F7790099C793F7F9009146638322
:10471000D70091099397490063D90700B70700F8BC
:10472000FD17B3F9F900130704089307E00F63CBF3
:10473000E70493976900A5831377F70FADBD85470D
:10474000B386E74011C76D4601478147E345D6E68A
:104750001307E4093397E9003337E000B3D7D900F2
:10476000D98F13F7770019C713F7F7009146630342
:10477000D700910713975700634C07009A07A5834A
:10478000014715BD1307F00F814735B52E84B5B726
:10479000054781470DB53707800041117D179356B6
:1047A000750113D87501B377A70093F6F60F935EE2
:1047B000F5013376B70026C24AC01378F80F06C653
:1047C00022C41303F00F3E8E3689F684139F370000
:1047D000FD8113153600B38806416302681093C546
:1047E0001500638CBE106354100D63100810630431
:1047F000051EFD18B307AF40638608029307F00F4C
:104800006388F616ED4763C71729130700023307BD
:1048100017413317E500B35715013337E000D98F3F
:10482000B307FF40139757006351071A370400047A
:104830007D147D8C2285FD296D15B317A400634E70
:10484000251B330525411304150013070002018FB2
:104850003397E7003337E000B3D78700D98F01499A
:1048600013F7770019C713F7F70091466303D700D2
:10487000910713975700635E0714930619001307F7
:10488000F00F93FE14006386E6169A07A58393F64D
:10489000F60FA607B240224413D59700DE06939781
:1048A000FE01558D924402495D8D410182806392E3
:1048B000080A138716001377E70F631B0714639426
:1048C000062263020F2071D5B307AF40139757003C
:1048D00063550722B307E5410149AE8451B7E300B0
:1048E00005F0638ABE0AE35410FD9307F00F63815D
:1048F000F608B70700045D8D31B7635E10096301E8
:1049000008089307F00F6385F606B70700045D8D6E
:10491000ED4763C0171F1307000233071741331712
:10492000E500B35715013337E000D98FFA97139795
:104930005700635C070805091307F00F630BE90ACA
:10494000B706007E13D71700FD16858B758FD98F9C
:1049500001BF3307D84063950610630D0F147D1710
:104960006303071A9307F00F6314F810AE84328EB6
:10497000630F0E06814E9306F00FB707400011BF7C
:1049800039C9FD18B307AF00E38308FA9307F00FA6
:10499000E390F6F8F1BF63990808138916001377BE
:1049A000E90F63160712639B061063030F16E302F9
:1049B00005EEB307AF00139757000149635707008F
:1049C000370700FC7D17F98F054913F77700E31CC3
:1049D00007E813DE37009307F00FE30BF9F893179E
:1049E0009E00A5839376F90F93FE14005DB593FEA8
:1049F00014009306F00F814769BD370700FC7D174F
:104A0000F98F13F777003309A940E31E07E4D1B704
:104A10003304AF409317540063C3070CE31C04E056
:104A2000814E81468147B5B53307D840B5C6930757
:104A3000F00FE30EF8F2B7070004336FFF00ED4705
:104A400063CDE70C93070002998FB317FF0033572C
:104A5000EF00B337F0005D8FB307A7004289C1BDF7
:104A60009307F00FE304F8F0B7070004336FFF007B
:104A7000ED4763C2E70893070002998FB317FF0061
:104A80003357EF00B337F000D98FB307F5404289B1
:104A9000AE8449BB854769B3630E0F067D17B30724
:104AA000AF004289E30507E89307F00FE319F8F830
:104AB000328E7DBD328E4289AE8431BFE3090FEA6A
:104AC000E30805EA45BD0DCDAE8EB287D9B3930795
:104AD000F00FE300F9F2B307AF008583FDB53304AF
:104AE000E541AE8481BBE31D0FFCE30505E8AE8420
:104AF000BDBD854725BD854749BF0149E39707EC03
:104B0000814E814779B3B307E5414289AE8419BB31
:104B1000B28741B3328E42897DBD054735BF1357F9
:104B200075011377F70F41119307170022C426C2AE
:104B30001314950006C693F7E70F25809354F501EB
:104B400085C793573400130707387604B207520716
:104B5000B1831395F401D98FC98FB24022852244C5
:104B60009244BE854101828005EB39C42285D92259
:104B7000A94763C6A7042D47098F930755013357EB
:104B8000E4003314F4009317C70013079038098F1B
:104B9000B1831377F77F5DBF01CC13573400B7079C
:104BA0000800D98FB2077604B1831307F07F79BF6D
:104BB0001307F07F814759BF0147814741BF130762
:104BC00055FF3317E40001447DBF93D64501939709
:104BD000C50093F6F67FB183138616008E07135730
:104BE000D5011376E67FFD815D8F9318350035CEB4
:104BF000138806C89307E00F63DD0701814713950B
:104C000097009306F00FDE062581FE05558D4D8D2C
:104C100082806355000B931765000E07B337F000D1
:104C2000D98F93D8D801B3E7170113F77700630141
:104C3000071013F7F70091466303D7009107370772
:104C400000047D8F75C7130718001306F00F9376C5
:104C5000F70FE305C7FA9A07A58313959700DE06B9
:104C60002581FE05558D4D8D8280B367170199EE24
:104C700085CF95479A07A5831395970093F6F60F6E
:104C8000DE062581FE05558D4D8D8280A5DBB7079B
:104C90004000139597009306F00FDE0681452581AD
:104CA000FE05558D4D8D8280814713959700814675
:104CB000DE062581FE05558D4D8D8280A557634802
:104CC000F804F94737068000B38707417D45598EC0
:104CD0006351F50479573307074113050002335731
:104CE000E6006388A700938626CAB316D600B3E809
:104CF000D800B3371001D98F13F77700014815FB9F
:104D0000139757008546E34807F48146A5B78146C7
:104D10008DB7938626C83397D8003337E000B31693
:104D2000D600B3D8F800B367D700B3E7F800E9B707
:104D3000C28689B7C167637EF5029307F00F130738
:104D4000000263ECA70097570000938767C5AA97F6
:104D500003C507003305A7408280218197570000D3
:104D6000938707C4AA9703C5070061473305A74087
:104D70008280B7070001636EF500618197570000DC
:104D8000938707C2AA9703C5070021473305A740A9
:104D90008280418197570000938787C0AA9703C5F7
:104DA000070041473305A7408280797122D44AD059
:104DB00052CC56CA5AC806D626D24ECE3A8AAE8AA7
:104DC00032843689428B01476358060037070080DA
:104DD0003344C7001307D0022380E70093F4F8FDA3
:104DE000930760048D466388F40093075004894656
:104DF0006393F4000509DA879308C1001308810062
:104E00004A87D6852286EF10D05E93077004AA8960
:104E10006396F400137A1A00630A0A049307600485
:104E2000338A29016397F40203C70900930700033B
:104E3000631EF700014681465685A285EF4000219A
:104E400011C585473389274123202B0183270B0078
:104E50003E9A014681465685A285EF40201F11E10A
:104E600052C613070003B24763E24703B2474257F3
:104E7000B2502254B38737411CC34E859254025915
:104E8000F249624AD24A424B4561828093861700BA
:104E900036C62380E700C1BF2300C50013072500E5
:104EA0009307B00263D60500B305B0409307D00264
:104EB000A300F500A54763DAB70441119307F10099
:104EC000BE88294813033006B3E605031386F7FFAF
:104ED00093860603A38FD7FEB3C60503634DB300C5
:104EE00093860603F917A30FD6FE63E9170133056E
:104EF000A74041018280B287B685F9B7850783C68E
:104F0000F7FF0507A30FD7FECDB7930700031307DD
:104F10004500938505032301F500A301B500330582
:104F2000A740828019713ACE86DEA2DCA6DA2E84F2
:104F3000CAD8CED6D2D4B689DAD0DECEE2CC328987
:104F4000D6D2E6CAEAC8EEC6AA84EF300001832BA7
:104F500005005E85EF003051032B0400724702DC30
:104F600093760B102A8C034A84011C43F1CA938662
:104F7000470014C39C43081098433AD0D8433AD210
:104F800098473AD4DC473ED6EF40E05928C46CC479
:104F9000832CC404175700001307C7B0832A840466
:104FA000032D0700832D470093971C0085836A8695
:104FB000EE865685BE853ECEEF40202641EDF24777
:104FC0006A86EE865685BE85EF40C0196354A008F8
:104FD000014681465685E685EF40C01863560500B8
:104FE0009307D002A301F40493077004975A0000BA
:104FF000938ACAAB63F64701975A0000938A4AAB7B
:10500000137BBBFF8D47232064011CC8014B4E87D7
:10501000CA867018A2852685F126FD5C631C95154D
:105020007D55F6506654D6544659B659265A965A66
:10503000065BF64B664CD64C464DB64D09618280F8
:105040009D07E19B9386870014C39843DC4338C4D3
:105050007CC43DBF5686E6865685E685EF40E01B5C
:1050600011CD93077004975A0000938AAAA4E3F91C
:1050700047F9975A0000938A2AA459B75C407D5794
:10508000137DFA0D6393E70899475CC0544013679A
:105090000B403C18D6853EC018C09307310302C2AE
:1050A000D28813084103668626850133930770046E
:1050B000AA8AD255631BFD00F55763C5F5005C4015
:1050C00063D7B708791A137AFA0F9307500663E586
:1050D0004705FD155286130504052EDA753B625708
:1050E00085462A8BB307A7001CC863C5E600184095
:1050F000058B19C385071CC883473103E38907F073
:105100009307D002A301F40419B713077004E31F37
:10511000EDF6ADFF854795BF93076006631BFA0266
:105120005C40635BB0000CC881E71840058B09CF79
:105130008507AE971CC809A889E718408546058BE6
:1051400019C39386270014C82CCC014B75B7130ADA
:105150007006E25763C9F5001C400CC8858BEDD77B
:1051600093871500C1BF05476344B00009470D8F01
:10517000BA97C9B71C4013F7074015E31448568681
:10518000CA8526858299E30D95E91C40898B639633
:105190000724F2574844E356F5E83E8559B513070E
:1051A0005006637B471928446C4401468146EF3022
:1051B000F06939E985461756000013062690CA851E
:1051C00026858299E30E95E55257E2576345F7002D
:1051D0001C40858BDDDBE2865E86CA85268582994A
:1051E000FD57E30FF5E2014A930AA4017D5BE25704
:1051F000FD17E35CFAF885465686CA8526858299AE
:10520000E30065E3050AE5B7D2576346F006854635
:10521000175600001306868ACA8526858299E301FF
:1052200095E1D2576257D98F81E71C40858BB1DF5A
:10523000E2865E86CA8526858299FD57E302F5DE01
:10524000014A130BA401FD5BD257B307F040634B37
:10525000FA00E2565686CA8526858299FD57E316DE
:10526000F5F27DBB85465A86CA8526858299E30973
:1052700075DB050AD1BF3C4C625A63D347013E8AB5
:10528000635A4001D2865686CA8526858299FD5783
:10529000E308F5D8814C130DA401FD5D09A88546EE
:1052A0006A86CA8526858299E30CB5D7850C032BBF
:1052B0008405D28763530A008147B307FB40E3C0EC
:1052C000FCFE5257E257634DF7021C40858B8DEB75
:1052D000E2575257338AE7406344EB00338A674111
:1052E000635B4001D28633866A01CA85268582992E
:1052F000FD57E307F5D2814A130BA401FD5B15A00E
:10530000E2865E86CA8526858299FD57E312F5FC02
:1053100001BB85465A86CA8526858299E30275D1E6
:10532000850A5257E257998F528763530A00014703
:10533000998FE3C0FAFE91BDE25605476344D7005A
:10534000858BB5C785465686CA85268582997D5A3E
:10535000E30845CDE2865E86CA8526858299E3010B
:1053600045CD28446C4401468146EF30304E1DC97E
:10537000E25613861A00CA85FD1626858299E30136
:1053800045CBDA8613060405F9B585465686CA85E7
:1053900026858299E30675C9050AE257FD17E3469B
:1053A000FAFEC5B7014A930AA401FD5BFDB7854625
:1053B0005686CA8526858299E31595FD95B1854661
:1053C0005686CA8526858299E30C65C5050A5C4424
:1053D0007257998FE345FAFE6DBB014A930A940117
:1053E0007D5BF5B7797156CA9C49BA8A984522D433
:1053F00026D24ECE52CC06D64AD05AC85EC6AA890C
:105400002E84B284368A63D3E700BA879CC00347F0
:10541000340419C385079CC01C4093F7070281C759
:105420009C4089079CC00329040013796900631A12
:105430000900130B9401FD5B5C449840998F634C09
:10544000F9041C408346340493F70702B336D000B6
:10545000A5EB13063404D2854E85829AFD5763036B
:10546000F5041C4011469840998B5444814463973D
:10547000C700B384E64063D3040081441C44184849
:105480006354F700998FBE94014969047D5B63986A
:105490002405014509A885465A86D2854E85829AFB
:1054A000631E75017D55B250225492540259F2493F
:1054B000624AD24A424BB24B456182800509ADBF78
:1054C0003307D40013060003A301C70403475404A1
:1054D00093871600A2978906A381E7049DBF85469E
:1054E0002286D2854E85829AE30E65FB050945B773
:1054F000797122D426D24AD04ECE06D652CC56CA84
:105500005AC8B68983C68501930790063289AA8452
:105510002E8413863504638DF60263E2D706930763
:1055200080056388F61863EDD70063810622930730
:105530003004638FF60A930A24042301D404D1A013
:10554000930730066386F60A93074006E395F6FE56
:105550001C40084393F6070893054500CDC61C413F
:105560000CC363D807001307D002B307F040A301B0
:10557000E404974600009386A654294775A893072C
:1055800000076384F61663E5D7029307E006638B92
:10559000F6189307F006E390F6FA0C401C4313F854
:1055A0000508138547006308080608C39C4395A8AF
:1055B00093075007E383F6FE93078007638BF61289
:1055C00093073007E399F6F61C43D0418145938653
:1055D000470014C383AA07005685EF20701E01C53B
:1055E0003305554148C05C401CC8A301040471A8A0
:1055F0001C43930A2404938647009C4314C323014D
:10560000F4048547D5B793F607041C410CC3B1DAFF
:10561000C207C187B9B793F5050408C3C1D983D7B9
:1056200007001307F0066387E60E9746000093868F
:1056300026492947A30104044C400CC463C5050056
:1056400008406D9908C099E3B28A91CDB28AB3F54A
:10565000E702FD1AB69583C505002380BA00B3D5CD
:10566000E70263FFE70AA147631EF7001C40858B32
:1056700091CB58401C4863C7E70093070003A38FF2
:10568000FAFEFD1A3306564110C84E87CA867000CE
:10569000A2852685813B7D5A631E450B7D55B25000
:1056A000225492540259F249624AD24A424B45610D
:1056B0008280A382D50497460000938666400C4002
:1056C000084313F805081C411105630D080208C3BF
:1056D00013F7150001C793E505020CC04147B9FB5C
:1056E0000C4093F5F5FD0CC0B1B79C4193E7070260
:1056F0009CC193078007A302F40497460000938699
:10570000663D75BF13F8050408C3E30308FCC20730
:10571000C1837DBF974600009386863A214719BF13
:10572000AE8735B794411C43CC4913F8060813855E
:1057300047006306080008C39C438CC301A808C344
:1057400093F606049C43F5DA2390B700232804005F
:10575000B28A25BF14485686CA8526858299E30FEA
:1057600045F31C40898B8DE7B2474844E359F5F275
:105770003E8535B785465686CA8526858299E30FCC
:1057800065F1050A5C443247998FE345FAFEE9BFAB
:10579000014A930A94017D5BF5B79C451D71A2CC2B
:1057A000CEC6DAC066DA86CEB28CA6CACAC8D2C461
:1057B000D6C25EDE62DC6AD86ED61386F7FF1307A8
:1057C000C015368BAA892E8481466377C7009386DD
:1057D00037EA9307D0159CC51C40930AC401D684B0
:1057E00093E707781CC00149814D014C014A014DE6
:1057F000814B13069004130800708548930E0040F7
:105800000943130E50061D4F18441DCB83A70C00EF
:1058100083C70700638BC7126368F60C9305900378
:1058200063E4F50A9305100363FBB7149305D002F4
:105830006383B71663E3F5041307B002638DE714BF
:1058400063060D001C4093F7F7EF1CC0FD1D854754
:1058500063EBB72163ED9A1E0549F64066444A851D
:10586000D6444649B649264A964A064BF25B625CE4
:10587000D25C425DB25D256182809305E002638F58
:10588000B71493050003E39DB7FA0C4013F5051018
:105890007DC593F5F5F70CC0050D81C60507FD160E
:1058A00018C41C44FD171CC41C4885071CC883A7CA
:1058B0004C00FD1723A2FC006356F01683A70C00D2
:1058C000850723A0FC0089B7130750046382E71201
:1058D00013076004638BE70E13071004E392E7F6E7
:1058E000E3901DF7894D65A06384C7116361FE04D1
:1058F00013074005638FE70C6364F7021307E004A6
:10590000E390E7F463910D0A63110D0A1840937553
:105910000770639C05091377F78718C0854D85A824
:10592000130790056389E7041307100645BF1307A3
:10593000E006E389E7FC6368F70213076006638605
:10594000E70813079006E39DE7EE63190906E31BDA
:105950000DEE184093750770E39A05EF1377F787FC
:1059600018C005492DA0130740076384E7061307F5
:105970009007E397E7ECE315E9ED214909A83387A0
:105980002D01E31F07EA18401377F7E718C02380BB
:10599000F400850439B7184093750708E38205EAD7
:1059A0001377F7F7E5B7638D6D06630519011147A6
:1059B000E318E9E805091379F90FD1BF1307D9FFF7
:1059C0001377D70FE31E07E6F5B7E31B69E60D492A
:1059D0007DBF1947E316E9E61D4955BF1840937589
:1059E0000720E38F05E41377F7D718C0EA8B45B794
:1059F0001840937507506388D50193750740E3817C
:105A000005E4E3050DE49375072081E5330A7D4144
:105A1000268C1377F7871367071818C0014D85BFC9
:105A20008D4DB5B783270418E6854E8536C6829717
:105A3000B24613069004130800708548930E004088
:105A40000943130E50061D4FE30005DCD5BBFD14C2
:105A50008327C41783C5040066864E8582971C4839
:105A6000FD171CC8C5BB9307F9FF19476366F7020A
:105A70008947A68D63F12709330799401377F70FFC
:105A80008D46B387ED0093F7F70F63ECF6027519B7
:105A90001379F90FB38424411C4013F7071045C351
:105AA00093F70740A1CFE3F99ADAFD148327C417CF
:105AB00083C5040066864E8582971C48FD171CC866
:105AC000DDB7FD1D8327C41783C50D0066864E858F
:105AD0003AC682971C488D463247FD171CC855B7F9
